{
  "address": "0x1F67a86C4c7A82325a8406741879F42fbf8dCD08",
  "abi": [
    {
      "inputs": [
        {
          "internalType": "string",
          "name": "name_",
          "type": "string"
        },
        {
          "internalType": "string",
          "name": "symbol_",
          "type": "string"
        }
      ],
      "stateMutability": "nonpayable",
      "type": "constructor"
    },
    {
      "anonymous": false,
      "inputs": [
        {
          "indexed": true,
          "internalType": "address",
          "name": "owner",
          "type": "address"
        },
        {
          "indexed": true,
          "internalType": "address",
          "name": "approved",
          "type": "address"
        },
        {
          "indexed": true,
          "internalType": "uint256",
          "name": "tokenId",
          "type": "uint256"
        }
      ],
      "name": "Approval",
      "type": "event"
    },
    {
      "anonymous": false,
      "inputs": [
        {
          "indexed": true,
          "internalType": "address",
          "name": "owner",
          "type": "address"
        },
        {
          "indexed": true,
          "internalType": "address",
          "name": "operator",
          "type": "address"
        },
        {
          "indexed": false,
          "internalType": "bool",
          "name": "approved",
          "type": "bool"
        }
      ],
      "name": "ApprovalForAll",
      "type": "event"
    },
    {
      "anonymous": false,
      "inputs": [
        {
          "indexed": true,
          "internalType": "address",
          "name": "from",
          "type": "address"
        },
        {
          "indexed": true,
          "internalType": "address",
          "name": "to",
          "type": "address"
        },
        {
          "indexed": true,
          "internalType": "uint256",
          "name": "tokenId",
          "type": "uint256"
        }
      ],
      "name": "Transfer",
      "type": "event"
    },
    {
      "inputs": [
        {
          "internalType": "address",
          "name": "to",
          "type": "address"
        },
        {
          "internalType": "uint256",
          "name": "tokenId",
          "type": "uint256"
        }
      ],
      "name": "approve",
      "outputs": [],
      "stateMutability": "nonpayable",
      "type": "function"
    },
    {
      "inputs": [
        {
          "internalType": "address",
          "name": "owner",
          "type": "address"
        }
      ],
      "name": "balanceOf",
      "outputs": [
        {
          "internalType": "uint256",
          "name": "",
          "type": "uint256"
        }
      ],
      "stateMutability": "view",
      "type": "function"
    },
    {
      "inputs": [
        {
          "internalType": "uint256",
          "name": "tokenId",
          "type": "uint256"
        }
      ],
      "name": "getApproved",
      "outputs": [
        {
          "internalType": "address",
          "name": "",
          "type": "address"
        }
      ],
      "stateMutability": "view",
      "type": "function"
    },
    {
      "inputs": [
        {
          "internalType": "address",
          "name": "owner",
          "type": "address"
        },
        {
          "internalType": "address",
          "name": "operator",
          "type": "address"
        }
      ],
      "name": "isApprovedForAll",
      "outputs": [
        {
          "internalType": "bool",
          "name": "",
          "type": "bool"
        }
      ],
      "stateMutability": "view",
      "type": "function"
    },
    {
      "inputs": [],
      "name": "name",
      "outputs": [
        {
          "internalType": "string",
          "name": "",
          "type": "string"
        }
      ],
      "stateMutability": "view",
      "type": "function"
    },
    {
      "inputs": [
        {
          "internalType": "uint256",
          "name": "tokenId",
          "type": "uint256"
        }
      ],
      "name": "ownerOf",
      "outputs": [
        {
          "internalType": "address",
          "name": "",
          "type": "address"
        }
      ],
      "stateMutability": "view",
      "type": "function"
    },
    {
      "inputs": [
        {
          "internalType": "address",
          "name": "to",
          "type": "address"
        },
        {
          "internalType": "uint256",
          "name": "tokenId",
          "type": "uint256"
        }
      ],
      "name": "safeMint",
      "outputs": [],
      "stateMutability": "nonpayable",
      "type": "function"
    },
    {
      "inputs": [
        {
          "internalType": "address",
          "name": "from",
          "type": "address"
        },
        {
          "internalType": "address",
          "name": "to",
          "type": "address"
        },
        {
          "internalType": "uint256",
          "name": "tokenId",
          "type": "uint256"
        }
      ],
      "name": "safeTransferFrom",
      "outputs": [],
      "stateMutability": "nonpayable",
      "type": "function"
    },
    {
      "inputs": [
        {
          "internalType": "address",
          "name": "from",
          "type": "address"
        },
        {
          "internalType": "address",
          "name": "to",
          "type": "address"
        },
        {
          "internalType": "uint256",
          "name": "tokenId",
          "type": "uint256"
        },
        {
          "internalType": "bytes",
          "name": "data",
          "type": "bytes"
        }
      ],
      "name": "safeTransferFrom",
      "outputs": [],
      "stateMutability": "nonpayable",
      "type": "function"
    },
    {
      "inputs": [
        {
          "internalType": "address",
          "name": "operator",
          "type": "address"
        },
        {
          "internalType": "bool",
          "name": "approved",
          "type": "bool"
        }
      ],
      "name": "setApprovalForAll",
      "outputs": [],
      "stateMutability": "nonpayable",
      "type": "function"
    },
    {
      "inputs": [
        {
          "internalType": "uint256",
          "name": "tokenId",
          "type": "uint256"
        },
        {
          "internalType": "string",
          "name": "_tokenURI",
          "type": "string"
        }
      ],
      "name": "setTokenURI",
      "outputs": [],
      "stateMutability": "nonpayable",
      "type": "function"
    },
    {
      "inputs": [
        {
          "internalType": "bytes4",
          "name": "interfaceId",
          "type": "bytes4"
        }
      ],
      "name": "supportsInterface",
      "outputs": [
        {
          "internalType": "bool",
          "name": "",
          "type": "bool"
        }
      ],
      "stateMutability": "view",
      "type": "function"
    },
    {
      "inputs": [],
      "name": "symbol",
      "outputs": [
        {
          "internalType": "string",
          "name": "",
          "type": "string"
        }
      ],
      "stateMutability": "view",
      "type": "function"
    },
    {
      "inputs": [
        {
          "internalType": "uint256",
          "name": "tokenId",
          "type": "uint256"
        }
      ],
      "name": "tokenURI",
      "outputs": [
        {
          "internalType": "string",
          "name": "",
          "type": "string"
        }
      ],
      "stateMutability": "view",
      "type": "function"
    },
    {
      "inputs": [
        {
          "internalType": "address",
          "name": "from",
          "type": "address"
        },
        {
          "internalType": "address",
          "name": "to",
          "type": "address"
        },
        {
          "internalType": "uint256",
          "name": "tokenId",
          "type": "uint256"
        }
      ],
      "name": "transferFrom",
      "outputs": [],
      "stateMutability": "nonpayable",
      "type": "function"
    }
  ],
  "transactionHash": "0x339693a72cb85486fb17e1cf9278d04e3be8792032b15515b78e17d68c1e7213",
  "args": [
    "E721T1",
    "E721T1"
  ],
  "numDeployments": 1,
  "solcInputHash": "27f47d457f46bea3ed168c3f3471d8ac",
  "bytecode": "0x60806040523480156200001157600080fd5b5060405162001811380380620018118339810160408190526200003491620001e1565b8151829082906200004d9060009060208501906200006e565b508051620000639060019060208401906200006e565b505050505062000288565b8280546200007c906200024b565b90600052602060002090601f016020900481019282620000a05760008555620000eb565b82601f10620000bb57805160ff1916838001178555620000eb565b82800160010185558215620000eb579182015b82811115620000eb578251825591602001919060010190620000ce565b50620000f9929150620000fd565b5090565b5b80821115620000f95760008155600101620000fe565b634e487b7160e01b600052604160045260246000fd5b600082601f8301126200013c57600080fd5b81516001600160401b038082111562000159576200015962000114565b604051601f8301601f19908116603f0116810190828211818310171562000184576200018462000114565b81604052838152602092508683858801011115620001a157600080fd5b600091505b83821015620001c55785820183015181830184015290820190620001a6565b83821115620001d75760008385830101525b9695505050505050565b60008060408385031215620001f557600080fd5b82516001600160401b03808211156200020d57600080fd5b6200021b868387016200012a565b935060208501519150808211156200023257600080fd5b5062000241858286016200012a565b9150509250929050565b600181811c908216806200026057607f821691505b602082108114156200028257634e487b7160e01b600052602260045260246000fd5b50919050565b61157980620002986000396000f3fe608060405234801561001057600080fd5b50600436106100d55760003560e01c80636352211e116100875780636352211e1461019057806370a08231146101a357806395d89b41146101c4578063a1448194146101cc578063a22cb465146101df578063b88d4fde146101f2578063c87b56dd14610205578063e985e9c51461021857600080fd5b806301ffc9a7146100da57806306fdde0314610102578063081812fc14610117578063095ea7b314610142578063162094c41461015757806323b872dd1461016a57806342842e0e1461017d575b600080fd5b6100ed6100e8366004610fe9565b61022b565b60405190151581526020015b60405180910390f35b61010a61027d565b6040516100f9919061105e565b61012a610125366004611071565b61030f565b6040516001600160a01b0390911681526020016100f9565b6101556101503660046110a6565b610336565b005b61015561016536600461115c565b610451565b6101556101783660046111b7565b61045f565b61015561018b3660046111b7565b610490565b61012a61019e366004611071565b6104ab565b6101b66101b13660046111f3565b6104e0565b6040519081526020016100f9565b61010a610566565b6101556101da3660046110a6565b610575565b6101556101ed36600461120e565b61057f565b61015561020036600461124a565b61058a565b61010a610213366004611071565b6105c2565b6100ed6102263660046112c6565b6105cd565b60006001600160e01b031982166380ac58cd60e01b148061025c57506001600160e01b03198216635b5e139f60e01b145b8061027757506301ffc9a760e01b6001600160e01b03198316145b92915050565b60606000805461028c906112f9565b80601f01602080910402602001604051908101604052809291908181526020018280546102b8906112f9565b80156103055780601f106102da57610100808354040283529160200191610305565b820191906000526020600020905b8154815290600101906020018083116102e857829003601f168201915b5050505050905090565b600061031a826105fb565b506000908152600460205260409020546001600160a01b031690565b6000610341826104ab565b9050806001600160a01b0316836001600160a01b031614156103b45760405162461bcd60e51b815260206004820152602160248201527f4552433732313a20617070726f76616c20746f2063757272656e74206f776e656044820152603960f91b60648201526084015b60405180910390fd5b336001600160a01b03821614806103d057506103d081336105cd565b6104425760405162461bcd60e51b815260206004820152603e60248201527f4552433732313a20617070726f76652063616c6c6572206973206e6f7420746f60448201527f6b656e206f776e6572206e6f7220617070726f76656420666f7220616c6c000060648201526084016103ab565b61044c8383610623565b505050565b61045b8282610691565b5050565b610469338261071c565b6104855760405162461bcd60e51b81526004016103ab90611334565b61044c83838361077b565b61044c8383836040518060200160405280600081525061058a565b6000818152600260205260408120546001600160a01b0316806102775760405162461bcd60e51b81526004016103ab90611382565b60006001600160a01b03821661054a5760405162461bcd60e51b815260206004820152602960248201527f4552433732313a2061646472657373207a65726f206973206e6f7420612076616044820152683634b21037bbb732b960b91b60648201526084016103ab565b506001600160a01b031660009081526003602052604090205490565b60606001805461028c906112f9565b61045b8282610917565b61045b338383610931565b610594338361071c565b6105b05760405162461bcd60e51b81526004016103ab90611334565b6105bc848484846109fc565b50505050565b606061027782610a2f565b6001600160a01b03918216600090815260056020908152604080832093909416825291909152205460ff1690565b61060481610b38565b6106205760405162461bcd60e51b81526004016103ab90611382565b50565b600081815260046020526040902080546001600160a01b0319166001600160a01b0384169081179091558190610658826104ab565b6001600160a01b03167f8c5be1e5ebec7d5bd14f71427d1e84f3dd0314c0f7b2291e5b200ac8c7c3b92560405160405180910390a45050565b61069a82610b38565b6106fd5760405162461bcd60e51b815260206004820152602e60248201527f45524337323155524953746f726167653a2055524920736574206f66206e6f6e60448201526d32bc34b9ba32b73a103a37b5b2b760911b60648201526084016103ab565b6000828152600660209081526040909120825161044c92840190610f3a565b600080610728836104ab565b9050806001600160a01b0316846001600160a01b0316148061074f575061074f81856105cd565b806107735750836001600160a01b03166107688461030f565b6001600160a01b0316145b949350505050565b826001600160a01b031661078e826104ab565b6001600160a01b0316146107f25760405162461bcd60e51b815260206004820152602560248201527f4552433732313a207472616e736665722066726f6d20696e636f72726563742060448201526437bbb732b960d91b60648201526084016103ab565b6001600160a01b0382166108545760405162461bcd60e51b8152602060048201526024808201527f4552433732313a207472616e7366657220746f20746865207a65726f206164646044820152637265737360e01b60648201526084016103ab565b61085f600082610623565b6001600160a01b03831660009081526003602052604081208054600192906108889084906113ca565b90915550506001600160a01b03821660009081526003602052604081208054600192906108b69084906113e1565b909155505060008181526002602052604080822080546001600160a01b0319166001600160a01b0386811691821790925591518493918716917fddf252ad1be2c89b69c2b068fc378daa952ba7f163c4a11628f55a4df523b3ef91a4505050565b61045b828260405180602001604052806000815250610b55565b816001600160a01b0316836001600160a01b0316141561098f5760405162461bcd60e51b815260206004820152601960248201527822a9219b99189d1030b8383937bb32903a379031b0b63632b960391b60448201526064016103ab565b6001600160a01b03838116600081815260056020908152604080832094871680845294825291829020805460ff191686151590811790915591519182527f17307eab39ab6107e8899845ad3d59bd9653f200f220920489ca2b5937696c31910160405180910390a3505050565b610a0784848461077b565b610a1384848484610b88565b6105bc5760405162461bcd60e51b81526004016103ab906113f9565b6060610a3a826105fb565b60008281526006602052604081208054610a53906112f9565b80601f0160208091040260200160405190810160405280929190818152602001828054610a7f906112f9565b8015610acc5780601f10610aa157610100808354040283529160200191610acc565b820191906000526020600020905b815481529060010190602001808311610aaf57829003601f168201915b505050505090506000610aea60408051602081019091526000815290565b9050805160001415610afd575092915050565b815115610b2f578082604051602001610b1792919061144b565b60405160208183030381529060405292505050919050565b61077384610c95565b6000908152600260205260409020546001600160a01b0316151590565b610b5f8383610d09565b610b6c6000848484610b88565b61044c5760405162461bcd60e51b81526004016103ab906113f9565b60006001600160a01b0384163b15610c8a57604051630a85bd0160e11b81526001600160a01b0385169063150b7a0290610bcc90339089908890889060040161147a565b602060405180830381600087803b158015610be657600080fd5b505af1925050508015610c16575060408051601f3d908101601f19168201909252610c13918101906114b7565b60015b610c70573d808015610c44576040519150601f19603f3d011682016040523d82523d6000602084013e610c49565b606091505b508051610c685760405162461bcd60e51b81526004016103ab906113f9565b805181602001fd5b6001600160e01b031916630a85bd0160e11b149050610773565b506001949350505050565b6060610ca0826105fb565b6000610cb760408051602081019091526000815290565b90506000815111610cd75760405180602001604052806000815250610d02565b80610ce184610e3c565b604051602001610cf292919061144b565b6040516020818303038152906040525b9392505050565b6001600160a01b038216610d5f5760405162461bcd60e51b815260206004820181905260248201527f4552433732313a206d696e7420746f20746865207a65726f206164647265737360448201526064016103ab565b610d6881610b38565b15610db55760405162461bcd60e51b815260206004820152601c60248201527f4552433732313a20746f6b656e20616c7265616479206d696e7465640000000060448201526064016103ab565b6001600160a01b0382166000908152600360205260408120805460019290610dde9084906113e1565b909155505060008181526002602052604080822080546001600160a01b0319166001600160a01b03861690811790915590518392907fddf252ad1be2c89b69c2b068fc378daa952ba7f163c4a11628f55a4df523b3ef908290a45050565b606081610e605750506040805180820190915260018152600360fc1b602082015290565b8160005b8115610e8a5780610e74816114d4565b9150610e839050600a83611505565b9150610e64565b60008167ffffffffffffffff811115610ea557610ea56110d0565b6040519080825280601f01601f191660200182016040528015610ecf576020820181803683370190505b5090505b841561077357610ee46001836113ca565b9150610ef1600a86611519565b610efc9060306113e1565b60f81b818381518110610f1157610f1161152d565b60200101906001600160f81b031916908160001a905350610f33600a86611505565b9450610ed3565b828054610f46906112f9565b90600052602060002090601f016020900481019282610f685760008555610fae565b82601f10610f8157805160ff1916838001178555610fae565b82800160010185558215610fae579182015b82811115610fae578251825591602001919060010190610f93565b50610fba929150610fbe565b5090565b5b80821115610fba5760008155600101610fbf565b6001600160e01b03198116811461062057600080fd5b600060208284031215610ffb57600080fd5b8135610d0281610fd3565b60005b83811015611021578181015183820152602001611009565b838111156105bc5750506000910152565b6000815180845261104a816020860160208601611006565b601f01601f19169290920160200192915050565b602081526000610d026020830184611032565b60006020828403121561108357600080fd5b5035919050565b80356001600160a01b03811681146110a157600080fd5b919050565b600080604083850312156110b957600080fd5b6110c28361108a565b946020939093013593505050565b634e487b7160e01b600052604160045260246000fd5b600067ffffffffffffffff80841115611101576111016110d0565b604051601f8501601f19908116603f01168101908282118183101715611129576111296110d0565b8160405280935085815286868601111561114257600080fd5b858560208301376000602087830101525050509392505050565b6000806040838503121561116f57600080fd5b82359150602083013567ffffffffffffffff81111561118d57600080fd5b8301601f8101851361119e57600080fd5b6111ad858235602084016110e6565b9150509250929050565b6000806000606084860312156111cc57600080fd5b6111d58461108a565b92506111e36020850161108a565b9150604084013590509250925092565b60006020828403121561120557600080fd5b610d028261108a565b6000806040838503121561122157600080fd5b61122a8361108a565b91506020830135801515811461123f57600080fd5b809150509250929050565b6000806000806080858703121561126057600080fd5b6112698561108a565b93506112776020860161108a565b925060408501359150606085013567ffffffffffffffff81111561129a57600080fd5b8501601f810187136112ab57600080fd5b6112ba878235602084016110e6565b91505092959194509250565b600080604083850312156112d957600080fd5b6112e28361108a565b91506112f06020840161108a565b90509250929050565b600181811c9082168061130d57607f821691505b6020821081141561132e57634e487b7160e01b600052602260045260246000fd5b50919050565b6020808252602e908201527f4552433732313a2063616c6c6572206973206e6f7420746f6b656e206f776e6560408201526d1c881b9bdc88185c1c1c9bdd995960921b606082015260800190565b602080825260189082015277115490cdcc8c4e881a5b9d985b1a59081d1bdad95b88125160421b604082015260600190565b634e487b7160e01b600052601160045260246000fd5b6000828210156113dc576113dc6113b4565b500390565b600082198211156113f4576113f46113b4565b500190565b60208082526032908201527f4552433732313a207472616e7366657220746f206e6f6e20455243373231526560408201527131b2b4bb32b91034b6b83632b6b2b73a32b960711b606082015260800190565b6000835161145d818460208801611006565b835190830190611471818360208801611006565b01949350505050565b6001600160a01b03858116825284166020820152604081018390526080606082018190526000906114ad90830184611032565b9695505050505050565b6000602082840312156114c957600080fd5b8151610d0281610fd3565b60006000198214156114e8576114e86113b4565b5060010190565b634e487b7160e01b600052601260045260246000fd5b600082611514576115146114ef565b500490565b600082611528576115286114ef565b500690565b634e487b7160e01b600052603260045260246000fdfea2646970667358221220b59b405f6be68a1a78939f89ac1160932acf0750d4a84673ee8a5eeec8b338ff64736f6c63430008090033",
  "devdoc": {
    "kind": "dev",
    "methods": {
      "approve(address,uint256)": {
        "details": "See {IERC721-approve}."
      },
      "balanceOf(address)": {
        "details": "See {IERC721-balanceOf}."
      },
      "getApproved(uint256)": {
        "details": "See {IERC721-getApproved}."
      },
      "isApprovedForAll(address,address)": {
        "details": "See {IERC721-isApprovedForAll}."
      },
      "name()": {
        "details": "See {IERC721Metadata-name}."
      },
      "ownerOf(uint256)": {
        "details": "See {IERC721-ownerOf}."
      },
      "safeTransferFrom(address,address,uint256)": {
        "details": "See {IERC721-safeTransferFrom}."
      },
      "safeTransferFrom(address,address,uint256,bytes)": {
        "details": "See {IERC721-safeTransferFrom}."
      },
      "setApprovalForAll(address,bool)": {
        "details": "See {IERC721-setApprovalForAll}."
      },
      "supportsInterface(bytes4)": {
        "details": "See {IERC165-supportsInterface}."
      },
      "symbol()": {
        "details": "See {IERC721Metadata-symbol}."
      },
      "transferFrom(address,address,uint256)": {
        "details": "See {IERC721-transferFrom}."
      }
    },
    "version": 1
  },
  "userdoc": {
    "kind": "user",
    "methods": {},
    "version": 1
  },
  "storageLayout": {
    "storage": [
      {
        "astId": 794,
        "contract": "contracts/nft/Erc721Token.sol:Erc721Token",
        "label": "_name",
        "offset": 0,
        "slot": "0",
        "type": "t_string_storage"
      },
      {
        "astId": 796,
        "contract": "contracts/nft/Erc721Token.sol:Erc721Token",
        "label": "_symbol",
        "offset": 0,
        "slot": "1",
        "type": "t_string_storage"
      },
      {
        "astId": 800,
        "contract": "contracts/nft/Erc721Token.sol:Erc721Token",
        "label": "_owners",
        "offset": 0,
        "slot": "2",
        "type": "t_mapping(t_uint256,t_address)"
      },
      {
        "astId": 804,
        "contract": "contracts/nft/Erc721Token.sol:Erc721Token",
        "label": "_balances",
        "offset": 0,
        "slot": "3",
        "type": "t_mapping(t_address,t_uint256)"
      },
      {
        "astId": 808,
        "contract": "contracts/nft/Erc721Token.sol:Erc721Token",
        "label": "_tokenApprovals",
        "offset": 0,
        "slot": "4",
        "type": "t_mapping(t_uint256,t_address)"
      },
      {
        "astId": 814,
        "contract": "contracts/nft/Erc721Token.sol:Erc721Token",
        "label": "_operatorApprovals",
        "offset": 0,
        "slot": "5",
        "type": "t_mapping(t_address,t_mapping(t_address,t_bool))"
      },
      {
        "astId": 1782,
        "contract": "contracts/nft/Erc721Token.sol:Erc721Token",
        "label": "_tokenURIs",
        "offset": 0,
        "slot": "6",
        "type": "t_mapping(t_uint256,t_string_storage)"
      }
    ],
    "types": {
      "t_address": {
        "encoding": "inplace",
        "label": "address",
        "numberOfBytes": "20"
      },
      "t_bool": {
        "encoding": "inplace",
        "label": "bool",
        "numberOfBytes": "1"
      },
      "t_mapping(t_address,t_bool)": {
        "encoding": "mapping",
        "key": "t_address",
        "label": "mapping(address => bool)",
        "numberOfBytes": "32",
        "value": "t_bool"
      },
      "t_mapping(t_address,t_mapping(t_address,t_bool))": {
        "encoding": "mapping",
        "key": "t_address",
        "label": "mapping(address => mapping(address => bool))",
        "numberOfBytes": "32",
        "value": "t_mapping(t_address,t_bool)"
      },
      "t_mapping(t_address,t_uint256)": {
        "encoding": "mapping",
        "key": "t_address",
        "label": "mapping(address => uint256)",
        "numberOfBytes": "32",
        "value": "t_uint256"
      },
      "t_mapping(t_uint256,t_address)": {
        "encoding": "mapping",
        "key": "t_uint256",
        "label": "mapping(uint256 => address)",
        "numberOfBytes": "32",
        "value": "t_address"
      },
      "t_mapping(t_uint256,t_string_storage)": {
        "encoding": "mapping",
        "key": "t_uint256",
        "label": "mapping(uint256 => string)",
        "numberOfBytes": "32",
        "value": "t_string_storage"
      },
      "t_string_storage": {
        "encoding": "bytes",
        "label": "string",
        "numberOfBytes": "32"
      },
      "t_uint256": {
        "encoding": "inplace",
        "label": "uint256",
        "numberOfBytes": "32"
      }
    }
  }
}