{
  "address": "0xc62a946E455dea9457868Fba3bED1A44E9073E40",
  "abi": [
    {
      "inputs": [],
      "name": "inc",
      "outputs": [],
      "stateMutability": "nonpayable",
      "type": "function"
    },
    {
      "inputs": [],
      "name": "inc3",
      "outputs": [],
      "stateMutability": "nonpayable",
      "type": "function"
    },
    {
      "inputs": [],
      "name": "x",
      "outputs": [
        {
          "internalType": "uint256",
          "name": "",
          "type": "uint256"
        }
      ],
      "stateMutability": "view",
      "type": "function"
    }
  ],
  "transactionHash": "0xb7fdae2c256894586c13090475f1c2216664a14cd7b37690767e61ddbb3946d5",
  "args": [],
  "numDeployments": 1,
  "solcInputHash": "6da3b99a48961a84e04044b8c2cf852e",
  "bytecode": "0x608060405234801561001057600080fd5b5060e88061001f6000396000f3fe6080604052348015600f57600080fd5b5060043610603c5760003560e01c80630c55699c146041578063371303c014605b5780633e4ae317146063575b600080fd5b604960005481565b60405190815260200160405180910390f35b60616069565b005b60616080565b600160008082825460799190608d565b9091555050565b6003600080828254607991905b6000821982111560ad57634e487b7160e01b600052601160045260246000fd5b50019056fea2646970667358221220dd9af32d3d3b5d5260a2306064d9fe3d84fff1b1a9a6e666ee3439635e36e57864736f6c63430008090033",
  "devdoc": {
    "kind": "dev",
    "methods": {},
    "version": 1
  },
  "userdoc": {
    "kind": "user",
    "methods": {},
    "version": 1
  },
  "storageLayout": {
    "storage": [
      {
        "astId": 3,
        "contract": "contracts/MyImplementationV1.sol:MyImplementationV1",
        "label": "x",
        "offset": 0,
        "slot": "0",
        "type": "t_uint256"
      }
    ],
    "types": {
      "t_uint256": {
        "encoding": "inplace",
        "label": "uint256",
        "numberOfBytes": "32"
      }
    }
  }
}