{
  "address": "0x24132Da56e758f1f41DF9D6d98f4e56d81dfA703",
  "abi": [
    {
      "inputs": [],
      "name": "implementationToken",
      "outputs": [
        {
          "internalType": "address",
          "name": "",
          "type": "address"
        }
      ],
      "stateMutability": "view",
      "type": "function"
    },
    {
      "inputs": [],
      "name": "registerToken",
      "outputs": [
        {
          "internalType": "address",
          "name": "newToken",
          "type": "address"
        }
      ],
      "stateMutability": "nonpayable",
      "type": "function"
    },
    {
      "inputs": [
        {
          "internalType": "address",
          "name": "_implement",
          "type": "address"
        }
      ],
      "name": "setImplementationToken",
      "outputs": [],
      "stateMutability": "nonpayable",
      "type": "function"
    },
    {
      "inputs": [
        {
          "internalType": "uint256",
          "name": "",
          "type": "uint256"
        }
      ],
      "name": "tokens",
      "outputs": [
        {
          "internalType": "address",
          "name": "",
          "type": "address"
        }
      ],
      "stateMutability": "view",
      "type": "function"
    }
  ],
  "transactionHash": "0x663f7e253c1afae538b5b52f0ab443c6fe78f8dd0db5ddc958884f2173832475",
  "args": [],
  "numDeployments": 3,
  "solcInputHash": "3e768d19d56272cd34a714e4c71aaf63",
  "bytecode": "0x608060405234801561001057600080fd5b506102e2806100206000396000f3fe608060405234801561001057600080fd5b506004361061004c5760003560e01c806318ce2bec146100515780634f64b2be146100835780635f79c42c146100b2578063bf03314a146100c5575b600080fd5b61008161005f366004610263565b600080546001600160a01b0319166001600160a01b0392909216919091179055565b005b610096610091366004610293565b6100cd565b6040516001600160a01b03909116815260200160405180910390f35b600054610096906001600160a01b031681565b6100966100f7565b600181815481106100dd57600080fd5b6000918252602090912001546001600160a01b0316905081565b6000805461010d906001600160a01b03166101c2565b6040516340c10f1960e01b815233600482015263b2d05e0060248201529091506001600160a01b038216906340c10f1990604401600060405180830381600087803b15801561015b57600080fd5b505af115801561016f573d6000803e3d6000fd5b50506001805480820182556000919091527fb10e2d527612073b26eecdfd717e6a320cf44b4afac2b0732d9fcbe2b7fa0cf60180546001600160a01b0319166001600160a01b0385161790555090919050565b6000604051733d602d80600a3d3981f3363d3d373d3d3d363d7360601b81528260601b60148201526e5af43d82803e903d91602b57fd5bf360881b60288201526037816000f09150506001600160a01b03811661025e5760405162461bcd60e51b8152602060048201526016602482015275115490cc4c4d8dce8818dc99585d194819985a5b195960521b604482015260640160405180910390fd5b919050565b60006020828403121561027557600080fd5b81356001600160a01b038116811461028c57600080fd5b9392505050565b6000602082840312156102a557600080fd5b503591905056fea2646970667358221220f5dd9476a7db7906cbc92f132b7fe6bc3bef7d28deac0e449299d9f37dc3cd7a64736f6c63430008090033",
  "devdoc": {
    "kind": "dev",
    "methods": {},
    "version": 1
  },
  "userdoc": {
    "kind": "user",
    "methods": {},
    "version": 1
  },
  "storageLayout": {
    "storage": [
      {
        "astId": 836,
        "contract": "contracts/minimalProxy/TokenFactory.sol:TokenFactory",
        "label": "implementationToken",
        "offset": 0,
        "slot": "0",
        "type": "t_address"
      },
      {
        "astId": 839,
        "contract": "contracts/minimalProxy/TokenFactory.sol:TokenFactory",
        "label": "tokens",
        "offset": 0,
        "slot": "1",
        "type": "t_array(t_address)dyn_storage"
      }
    ],
    "types": {
      "t_address": {
        "encoding": "inplace",
        "label": "address",
        "numberOfBytes": "20"
      },
      "t_array(t_address)dyn_storage": {
        "base": "t_address",
        "encoding": "dynamic_array",
        "label": "address[]",
        "numberOfBytes": "32"
      }
    }
  }
}