{
  "address": "0x38AcCB8158ADb854B281d2A73fC364fFF3d354dA",
  "abi": [
    {
      "inputs": [
        {
          "internalType": "uint256",
          "name": "number",
          "type": "uint256"
        }
      ],
      "name": "CustomError1",
      "type": "error"
    },
    {
      "inputs": [
        {
          "internalType": "uint256",
          "name": "number",
          "type": "uint256"
        }
      ],
      "name": "CustomError2",
      "type": "error"
    },
    {
      "inputs": [],
      "name": "index",
      "outputs": [
        {
          "internalType": "uint256",
          "name": "",
          "type": "uint256"
        }
      ],
      "stateMutability": "view",
      "type": "function"
    },
    {
      "inputs": [
        {
          "internalType": "uint256",
          "name": "_number",
          "type": "uint256"
        }
      ],
      "name": "setIndex",
      "outputs": [],
      "stateMutability": "nonpayable",
      "type": "function"
    }
  ],
  "transactionHash": "0xb97a8a99a4205755d6499d7bc7345618ed149ecb7d0ee9502aaa70a6cd00b491",
  "args": [],
  "numDeployments": 1,
  "solcInputHash": "246ad989d8943998444d73f0d143e262",
  "bytecode": "0x608060405234801561001057600080fd5b5061014f806100206000396000f3fe608060405234801561001057600080fd5b50600436106100365760003560e01c80632986c0e51461003b57806340a5737f14610056575b600080fd5b61004460005481565b60405190815260200160405180910390f35b610069610064366004610100565b61006b565b005b600581116100b15760405162461bcd60e51b815260206004820152600e60248201526d4572726f7220726571756972657360901b60448201526064015b60405180910390fd5b600a8110156100d65760405163cc90d7f760e01b8152600481018290526024016100a8565b60148110156100fb5760405163d340b9b360e01b8152600481018290526024016100a8565b600055565b60006020828403121561011257600080fd5b503591905056fea2646970667358221220124ede3ff1f09129c0d44af098af952ccdb3c0b9cd1530f5ec0581e4732c40ee64736f6c63430008090033",
  "devdoc": {
    "kind": "dev",
    "methods": {},
    "version": 1
  },
  "userdoc": {
    "kind": "user",
    "methods": {},
    "version": 1
  },
  "storageLayout": {
    "storage": [
      {
        "astId": 3,
        "contract": "contracts/client-test/ClientTest.sol:ClientTest",
        "label": "index",
        "offset": 0,
        "slot": "0",
        "type": "t_uint256"
      }
    ],
    "types": {
      "t_uint256": {
        "encoding": "inplace",
        "label": "uint256",
        "numberOfBytes": "32"
      }
    }
  }
}