{
  "address": "0x77a7Bd9C00EBb2bbdB17B72996fE9eD5247d3827",
  "abi": [
    {
      "inputs": [],
      "name": "inc",
      "outputs": [],
      "stateMutability": "nonpayable",
      "type": "function"
    },
    {
      "inputs": [],
      "name": "inc3",
      "outputs": [],
      "stateMutability": "nonpayable",
      "type": "function"
    },
    {
      "inputs": [],
      "name": "inc5",
      "outputs": [],
      "stateMutability": "nonpayable",
      "type": "function"
    },
    {
      "inputs": [],
      "name": "x",
      "outputs": [
        {
          "internalType": "uint256",
          "name": "",
          "type": "uint256"
        }
      ],
      "stateMutability": "view",
      "type": "function"
    }
  ],
  "transactionHash": "0xc8346c78437ad9857109288fe5917486ed849484967b535ea60c3162ee22ae08",
  "args": [],
  "numDeployments": 1,
  "solcInputHash": "5c632b610fbe6e878ef34b46cc4a39cb",
  "bytecode": "0x608060405234801561001057600080fd5b50610108806100206000396000f3fe6080604052348015600f57600080fd5b506004361060465760003560e01c80630c55699c14604b5780631d892311146065578063371303c014606d5780633e4ae317146073575b600080fd5b605360005481565b60405190815260200160405180910390f35b606b6079565b005b606b6090565b606b60a0565b60056000808282546089919060ad565b9091555050565b60016000808282546089919060ad565b6003600080828254608991905b6000821982111560cd57634e487b7160e01b600052601160045260246000fd5b50019056fea26469706673582212205fb42c3c92fee47904f8dedbf0570ac1018e44b8661af6f85416cb6e692edbcc64736f6c63430008090033",
  "devdoc": {
    "kind": "dev",
    "methods": {},
    "version": 1
  },
  "userdoc": {
    "kind": "user",
    "methods": {},
    "version": 1
  },
  "storageLayout": {
    "storage": [
      {
        "astId": 3,
        "contract": "contracts/MyImplementationV1.sol:MyImplementationV1",
        "label": "x",
        "offset": 0,
        "slot": "0",
        "type": "t_uint256"
      }
    ],
    "types": {
      "t_uint256": {
        "encoding": "inplace",
        "label": "uint256",
        "numberOfBytes": "32"
      }
    }
  }
}