{
  "address": "0x0abedE1822cbA4431893b97e1d6fef7ee4Aa195b",
  "abi": [
    {
      "inputs": [
        {
          "internalType": "uint64",
          "name": "subscriptionId",
          "type": "uint64"
        }
      ],
      "stateMutability": "nonpayable",
      "type": "constructor"
    },
    {
      "inputs": [
        {
          "internalType": "address",
          "name": "have",
          "type": "address"
        },
        {
          "internalType": "address",
          "name": "want",
          "type": "address"
        }
      ],
      "name": "OnlyCoordinatorCanFulfill",
      "type": "error"
    },
    {
      "anonymous": false,
      "inputs": [
        {
          "indexed": true,
          "internalType": "uint256",
          "name": "requestId",
          "type": "uint256"
        },
        {
          "indexed": true,
          "internalType": "uint256",
          "name": "result",
          "type": "uint256"
        }
      ],
      "name": "DiceLanded",
      "type": "event"
    },
    {
      "anonymous": false,
      "inputs": [
        {
          "indexed": true,
          "internalType": "uint256",
          "name": "requestId",
          "type": "uint256"
        },
        {
          "indexed": true,
          "internalType": "address",
          "name": "roller",
          "type": "address"
        }
      ],
      "name": "DiceRolled",
      "type": "event"
    },
    {
      "inputs": [],
      "name": "COORDINATOR",
      "outputs": [
        {
          "internalType": "contract VRFCoordinatorV2Interface",
          "name": "",
          "type": "address"
        }
      ],
      "stateMutability": "view",
      "type": "function"
    },
    {
      "inputs": [
        {
          "internalType": "address",
          "name": "player",
          "type": "address"
        }
      ],
      "name": "house",
      "outputs": [
        {
          "internalType": "string",
          "name": "",
          "type": "string"
        }
      ],
      "stateMutability": "view",
      "type": "function"
    },
    {
      "inputs": [
        {
          "internalType": "uint256",
          "name": "requestId",
          "type": "uint256"
        },
        {
          "internalType": "uint256[]",
          "name": "randomWords",
          "type": "uint256[]"
        }
      ],
      "name": "rawFulfillRandomWords",
      "outputs": [],
      "stateMutability": "nonpayable",
      "type": "function"
    },
    {
      "inputs": [
        {
          "internalType": "address",
          "name": "roller",
          "type": "address"
        }
      ],
      "name": "rollDice",
      "outputs": [
        {
          "internalType": "uint256",
          "name": "requestId",
          "type": "uint256"
        }
      ],
      "stateMutability": "nonpayable",
      "type": "function"
    },
    {
      "inputs": [],
      "name": "s_owner",
      "outputs": [
        {
          "internalType": "address",
          "name": "",
          "type": "address"
        }
      ],
      "stateMutability": "view",
      "type": "function"
    }
  ],
  "transactionHash": "0x532b39eb58ecbdc3129c474a1c7f6fa3b8e2ec407646c8d3c749f75d9b8d5d52",
  "args": [
    5332
  ],
  "numDeployments": 1,
  "solcInputHash": "ac8987a50ac6ce327791d6175ee28ba3",
  "bytecode": "0x60a0604052600280546001600160a01b031916732ca8e0c643bde4c2e08ab1fa0da3401adad7734d1790557f79d3d8832d904592c0bf9818b621522c988bb8b0c05cdc3b15aea1b6e8db0c15600355600480546601000300009c406001600160501b031990911617905534801561007557600080fd5b50604051610ac9380380610ac9833981016040819052610094916100f5565b6002546001600160a01b03166080819052600080546001600160a01b0319169091179055600180546001600160e01b03191633600160a01b600160e01b03191617600160a01b6001600160401b039390931692909202919091179055610125565b60006020828403121561010757600080fd5b81516001600160401b038116811461011e57600080fd5b9392505050565b60805161098261014760003960008181610100015261014201526109826000f3fe608060405234801561001057600080fd5b50600436106100575760003560e01c80631fe543e31461005c5780633b2bcbf114610071578063b1cad5e3146100a1578063dd02d9e5146100c1578063e3978240146100e2575b600080fd5b61006f61006a366004610767565b6100f5565b005b600054610084906001600160a01b031681565b6040516001600160a01b0390911681526020015b60405180910390f35b6100b46100af366004610831565b610182565b6040516100989190610861565b6100d46100cf366004610831565b610260565b604051908152602001610098565b600154610084906001600160a01b031681565b336001600160a01b037f000000000000000000000000000000000000000000000000000000000000000016146101745760405163073e64fd60e21b81523360048201526001600160a01b037f00000000000000000000000000000000000000000000000000000000000000001660248201526044015b60405180910390fd5b61017e828261040c565b5050565b6001600160a01b0381166000908152600660205260409020546060906101dc5760405162461bcd60e51b815260206004820152600f60248201526e111a58d9481b9bdd081c9bdb1b1959608a1b604482015260640161016b565b6001600160a01b038216600090815260066020526040902054602a14156102385760405162461bcd60e51b815260206004820152601060248201526f526f6c6c20696e2070726f677265737360801b604482015260640161016b565b6001600160a01b03821660009081526006602052604090205461025a90610498565b92915050565b6001546000906001600160a01b0316331461027a57600080fd5b6001600160a01b038216600090815260066020526040902054156102d15760405162461bcd60e51b815260206004820152600e60248201526d105b1c9958591e481c9bdb1b195960921b604482015260640161016b565b600054600354600154600480546040516305d3b1d360e41b815291820193909352600160a01b90910467ffffffffffffffff166024820152640100000000820461ffff16604482015263ffffffff8083166064830152660100000000000090920490911660848201526001600160a01b0390911690635d3b1d309060a401602060405180830381600087803b15801561036957600080fd5b505af115801561037d573d6000803e3d6000fd5b505050506040513d601f19601f820116820180604052508101906103a191906108b6565b600081815260056020908152604080832080546001600160a01b0319166001600160a01b0388169081179091558084526006909252808320602a9055519293509183917f3e7fdeab84c01ce5308321caa0b460e1c4ec3c7099223d79634d9a71d99932e391a3919050565b6000601482600081518110610423576104236108cf565b602002602001015161043591906108e5565b61044090600161091d565b6000848152600560209081526040808320546001600160a01b03168352600690915280822083905551919250829185917f54d97c1f7e5abad75bd421455cd4dd296852a52e1ea721f2cdb66d06fa2082a991a3505050565b604080516102c08101825260096102808201818152682a30b933b0b93cb2b760b91b6102a0840152825282518084018452818152682630b73734b9ba32b960b91b6020828101919091528084019190915283518085018552600580825264537461726b60d81b828401528486019190915284518086018652600680825265151e5c995b1b60d21b8285015260608681019290925286518088018852948552682130b930ba3432b7b760b91b8585015260808601949094528551808701875260078082526613585c9d195b1b60ca1b8286015260a0870191909152865180880188528381526454756c6c7960d81b8186015260c087015286518088018852858152652137b63a37b760d11b8186015260e08701528651808801885281815266477265796a6f7960c81b81860152610100870152865180880188528381526420b9393cb760d91b818601526101208701528651808801885260048152634672657960e01b818601526101408701528651808801885281815266135bdc9b5bdb9d60ca1b8186015261016087015286518088018852858152655461726c657960d01b8186015261018087015286518088018852838152644461796e6560d81b818601526101a087015286518088018852928352642ab6b132b960d91b838501526101c0860192909252855180870187526008808252672b30b632b93cb7b760c11b828601526101e087019190915286518088018852818152674d616e6465726c7960c01b818601526102008701528651808801885292835266436c6567616e6560c81b83850152610220860192909252855180870187529384526523b637bb32b960d11b8484015261024085019390935284518086019095528452674b6172737461726b60c01b9084015261026082019290925280610735600185610935565b60148110610745576107456108cf565b60200201519392505050565b634e487b7160e01b600052604160045260246000fd5b6000806040838503121561077a57600080fd5b8235915060208084013567ffffffffffffffff8082111561079a57600080fd5b818601915086601f8301126107ae57600080fd5b8135818111156107c0576107c0610751565b8060051b604051601f19603f830116810181811085821117156107e5576107e5610751565b60405291825284820192508381018501918983111561080357600080fd5b938501935b8285101561082157843584529385019392850192610808565b8096505050505050509250929050565b60006020828403121561084357600080fd5b81356001600160a01b038116811461085a57600080fd5b9392505050565b600060208083528351808285015260005b8181101561088e57858101830151858201604001528201610872565b818111156108a0576000604083870101525b50601f01601f1916929092016040019392505050565b6000602082840312156108c857600080fd5b5051919050565b634e487b7160e01b600052603260045260246000fd5b60008261090257634e487b7160e01b600052601260045260246000fd5b500690565b634e487b7160e01b600052601160045260246000fd5b6000821982111561093057610930610907565b500190565b60008282101561094757610947610907565b50039056fea26469706673582212207df13b1a8be6060318f638fa6766d623c9f3427fe3a43dfe4664634e906911a464736f6c63430008090033",
  "devdoc": {
    "kind": "dev",
    "methods": {},
    "version": 1
  },
  "userdoc": {
    "kind": "user",
    "methods": {},
    "version": 1
  },
  "storageLayout": {
    "storage": [
      {
        "astId": 163,
        "contract": "contracts/oracle/MyVRF.sol:MyVRF",
        "label": "COORDINATOR",
        "offset": 0,
        "slot": "0",
        "type": "t_contract(VRFCoordinatorV2Interface)153"
      },
      {
        "astId": 165,
        "contract": "contracts/oracle/MyVRF.sol:MyVRF",
        "label": "s_owner",
        "offset": 0,
        "slot": "1",
        "type": "t_address"
      },
      {
        "astId": 167,
        "contract": "contracts/oracle/MyVRF.sol:MyVRF",
        "label": "s_subscriptionId",
        "offset": 20,
        "slot": "1",
        "type": "t_uint64"
      },
      {
        "astId": 170,
        "contract": "contracts/oracle/MyVRF.sol:MyVRF",
        "label": "vrfCoordinator",
        "offset": 0,
        "slot": "2",
        "type": "t_address"
      },
      {
        "astId": 173,
        "contract": "contracts/oracle/MyVRF.sol:MyVRF",
        "label": "s_keyHash",
        "offset": 0,
        "slot": "3",
        "type": "t_bytes32"
      },
      {
        "astId": 176,
        "contract": "contracts/oracle/MyVRF.sol:MyVRF",
        "label": "callbackGasLimit",
        "offset": 0,
        "slot": "4",
        "type": "t_uint32"
      },
      {
        "astId": 179,
        "contract": "contracts/oracle/MyVRF.sol:MyVRF",
        "label": "requestConfirmations",
        "offset": 4,
        "slot": "4",
        "type": "t_uint16"
      },
      {
        "astId": 182,
        "contract": "contracts/oracle/MyVRF.sol:MyVRF",
        "label": "numWords",
        "offset": 6,
        "slot": "4",
        "type": "t_uint32"
      },
      {
        "astId": 201,
        "contract": "contracts/oracle/MyVRF.sol:MyVRF",
        "label": "s_rollers",
        "offset": 0,
        "slot": "5",
        "type": "t_mapping(t_uint256,t_address)"
      },
      {
        "astId": 205,
        "contract": "contracts/oracle/MyVRF.sol:MyVRF",
        "label": "s_results",
        "offset": 0,
        "slot": "6",
        "type": "t_mapping(t_address,t_uint256)"
      }
    ],
    "types": {
      "t_address": {
        "encoding": "inplace",
        "label": "address",
        "numberOfBytes": "20"
      },
      "t_bytes32": {
        "encoding": "inplace",
        "label": "bytes32",
        "numberOfBytes": "32"
      },
      "t_contract(VRFCoordinatorV2Interface)153": {
        "encoding": "inplace",
        "label": "contract VRFCoordinatorV2Interface",
        "numberOfBytes": "20"
      },
      "t_mapping(t_address,t_uint256)": {
        "encoding": "mapping",
        "key": "t_address",
        "label": "mapping(address => uint256)",
        "numberOfBytes": "32",
        "value": "t_uint256"
      },
      "t_mapping(t_uint256,t_address)": {
        "encoding": "mapping",
        "key": "t_uint256",
        "label": "mapping(uint256 => address)",
        "numberOfBytes": "32",
        "value": "t_address"
      },
      "t_uint16": {
        "encoding": "inplace",
        "label": "uint16",
        "numberOfBytes": "2"
      },
      "t_uint256": {
        "encoding": "inplace",
        "label": "uint256",
        "numberOfBytes": "32"
      },
      "t_uint32": {
        "encoding": "inplace",
        "label": "uint32",
        "numberOfBytes": "4"
      },
      "t_uint64": {
        "encoding": "inplace",
        "label": "uint64",
        "numberOfBytes": "8"
      }
    }
  }
}