{
  "address": "0xD6a6f619B02D78EB191D875E41539920c8b2c441",
  "abi": [
    {
      "inputs": [
        {
          "internalType": "address",
          "name": "",
          "type": "address"
        }
      ],
      "name": "balances",
      "outputs": [
        {
          "internalType": "uint256",
          "name": "",
          "type": "uint256"
        }
      ],
      "stateMutability": "view",
      "type": "function"
    },
    {
      "inputs": [
        {
          "internalType": "address",
          "name": "_recipient",
          "type": "address"
        },
        {
          "internalType": "uint256",
          "name": "_amount",
          "type": "uint256"
        }
      ],
      "name": "mint",
      "outputs": [],
      "stateMutability": "nonpayable",
      "type": "function"
    }
  ],
  "transactionHash": "0x3f1cd82391438fe85f759f6eff0056ce99f0bba9736f8ef1f23e812348f36098",
  "args": [],
  "numDeployments": 1,
  "solcInputHash": "1fa4880d6e02d0879833e3726aadd193",
  "bytecode": "0x608060405234801561001057600080fd5b50610185806100206000396000f3fe608060405234801561001057600080fd5b50600436106100365760003560e01c806327e235e31461003b57806340c10f191461006d575b600080fd5b61005b6100493660046100dd565b60006020819052908152604090205481565b60405190815260200160405180910390f35b61008061007b3660046100ff565b610082565b005b61008c8282610090565b5050565b6001600160a01b038216600090815260208190526040812080548392906100b8908490610129565b90915550505050565b80356001600160a01b03811681146100d857600080fd5b919050565b6000602082840312156100ef57600080fd5b6100f8826100c1565b9392505050565b6000806040838503121561011257600080fd5b61011b836100c1565b946020939093013593505050565b6000821982111561014a57634e487b7160e01b600052601160045260246000fd5b50019056fea2646970667358221220f0f3239608e18ad9be30ece5601df6dfda08d4921b1142d39d1c482235a72d1b64736f6c63430008090033",
  "devdoc": {
    "kind": "dev",
    "methods": {},
    "version": 1
  },
  "userdoc": {
    "kind": "user",
    "methods": {},
    "version": 1
  },
  "storageLayout": {
    "storage": [
      {
        "astId": 85,
        "contract": "contracts/minimalProxy/Token.sol:Token",
        "label": "balances",
        "offset": 0,
        "slot": "0",
        "type": "t_mapping(t_address,t_uint256)"
      }
    ],
    "types": {
      "t_address": {
        "encoding": "inplace",
        "label": "address",
        "numberOfBytes": "20"
      },
      "t_mapping(t_address,t_uint256)": {
        "encoding": "mapping",
        "key": "t_address",
        "label": "mapping(address => uint256)",
        "numberOfBytes": "32",
        "value": "t_uint256"
      },
      "t_uint256": {
        "encoding": "inplace",
        "label": "uint256",
        "numberOfBytes": "32"
      }
    }
  }
}