{
  "address": "0xB295a28716aE8606a45de4def151909f7a08Ec54",
  "abi": [
    {
      "inputs": [
        {
          "internalType": "string",
          "name": "_sentences",
          "type": "string"
        }
      ],
      "name": "addSentences",
      "outputs": [],
      "stateMutability": "nonpayable",
      "type": "function"
    },
    {
      "inputs": [
        {
          "internalType": "uint256",
          "name": "_index",
          "type": "uint256"
        },
        {
          "internalType": "string",
          "name": "_updateSentences",
          "type": "string"
        }
      ],
      "name": "changeSentence",
      "outputs": [],
      "stateMutability": "nonpayable",
      "type": "function"
    },
    {
      "inputs": [
        {
          "internalType": "uint256",
          "name": "_index",
          "type": "uint256"
        }
      ],
      "name": "deleteSentences",
      "outputs": [],
      "stateMutability": "nonpayable",
      "type": "function"
    },
    {
      "inputs": [
        {
          "internalType": "uint256",
          "name": "",
          "type": "uint256"
        }
      ],
      "name": "forbiddenSentences",
      "outputs": [
        {
          "internalType": "string",
          "name": "",
          "type": "string"
        }
      ],
      "stateMutability": "view",
      "type": "function"
    },
    {
      "inputs": [],
      "name": "getAllSentences",
      "outputs": [
        {
          "internalType": "string[]",
          "name": "",
          "type": "string[]"
        }
      ],
      "stateMutability": "view",
      "type": "function"
    },
    {
      "inputs": [],
      "name": "reset",
      "outputs": [],
      "stateMutability": "nonpayable",
      "type": "function"
    }
  ],
  "transactionHash": "0x6ac481097f59c95e9ddc31d40a18eae40900d659f7356cf07fce4751a83d00f1",
  "args": [],
  "numDeployments": 2,
  "solcInputHash": "08d2a7ddd17cfa5a4d886b5edc6795a7",
  "bytecode": "0x608060405234801561001057600080fd5b5061083d806100206000396000f3fe608060405234801561001057600080fd5b50600436106100625760003560e01c806352291bb2146100675780637c5e47111461007c578063b24235e81461008f578063d56676d6146100b8578063d826f88f146100cd578063f2d3116c146100d5575b600080fd5b61007a610075366004610537565b6100e8565b005b61007a61008a3660046105f3565b61019f565b6100a261009d366004610537565b6101d5565b6040516100af9190610687565b60405180910390f35b6100c0610281565b6040516100af91906106a1565b61007a61035a565b61007a6100e3366004610703565b610367565b600054815b6100f8600183610756565b81101561016b57600061010c82600161076d565b8154811061011c5761011c610785565b906000526020600020016000828154811061013957610139610785565b9060005260206000200190805461014f9061079b565b61015a9291906103ab565b50610164816107d6565b90506100ed565b50600080548061017d5761017d6107f1565b6001900381819060005260206000200160006101999190610436565b90555050565b80600083815481106101b3576101b3610785565b9060005260206000200190805190602001906101d0929190610473565b505050565b600081815481106101e557600080fd5b9060005260206000200160009150905080546102009061079b565b80601f016020809104026020016040519081016040528092919081815260200182805461022c9061079b565b80156102795780601f1061024e57610100808354040283529160200191610279565b820191906000526020600020905b81548152906001019060200180831161025c57829003601f168201915b505050505081565b60606000805480602002602001604051908101604052809291908181526020016000905b828210156103515783829060005260206000200180546102c49061079b565b80601f01602080910402602001604051908101604052809291908181526020018280546102f09061079b565b801561033d5780601f106103125761010080835404028352916020019161033d565b820191906000526020600020905b81548152906001019060200180831161032057829003601f168201915b5050505050815260200190600101906102a5565b50505050905090565b6103656000806104e7565b565b6000805460018101825590805281516103a7917f290decd9548b62a8d60345a988386fc84ba6bc95484008f6362f93160ef3e56301906020840190610473565b5050565b8280546103b79061079b565b90600052602060002090601f0160209004810192826103d95760008555610426565b82601f106103ea5780548555610426565b8280016001018555821561042657600052602060002091601f016020900482015b8281111561042657825482559160010191906001019061040b565b50610432929150610505565b5090565b5080546104429061079b565b6000825580601f10610452575050565b601f0160209004906000526020600020908101906104709190610505565b50565b82805461047f9061079b565b90600052602060002090601f0160209004810192826104a15760008555610426565b82601f106104ba57805160ff1916838001178555610426565b82800160010185558215610426579182015b828111156104265782518255916020019190600101906104cc565b5080546000825590600052602060002090810190610470919061051a565b5b808211156104325760008155600101610506565b8082111561043257600061052e8282610436565b5060010161051a565b60006020828403121561054957600080fd5b5035919050565b634e487b7160e01b600052604160045260246000fd5b600082601f83011261057757600080fd5b813567ffffffffffffffff8082111561059257610592610550565b604051601f8301601f19908116603f011681019082821181831017156105ba576105ba610550565b816040528381528660208588010111156105d357600080fd5b836020870160208301376000602085830101528094505050505092915050565b6000806040838503121561060657600080fd5b82359150602083013567ffffffffffffffff81111561062457600080fd5b61063085828601610566565b9150509250929050565b6000815180845260005b8181101561066057602081850181015186830182015201610644565b81811115610672576000602083870101525b50601f01601f19169290920160200192915050565b60208152600061069a602083018461063a565b9392505050565b6000602080830181845280855180835260408601915060408160051b870101925083870160005b828110156106f657603f198886030184526106e485835161063a565b945092850192908501906001016106c8565b5092979650505050505050565b60006020828403121561071557600080fd5b813567ffffffffffffffff81111561072c57600080fd5b61073884828501610566565b949350505050565b634e487b7160e01b600052601160045260246000fd5b60008282101561076857610768610740565b500390565b6000821982111561078057610780610740565b500190565b634e487b7160e01b600052603260045260246000fd5b600181811c908216806107af57607f821691505b602082108114156107d057634e487b7160e01b600052602260045260246000fd5b50919050565b60006000198214156107ea576107ea610740565b5060010190565b634e487b7160e01b600052603160045260246000fdfea2646970667358221220299bb84f8b30ae4fcf1c278d69e5b532b7a6c1923d9e0633bc8f63264f558ac264736f6c63430008090033",
  "devdoc": {
    "kind": "dev",
    "methods": {},
    "version": 1
  },
  "userdoc": {
    "kind": "user",
    "methods": {},
    "version": 1
  },
  "storageLayout": {
    "storage": [
      {
        "astId": 4,
        "contract": "contracts/TTTT.sol:TTTT",
        "label": "forbiddenSentences",
        "offset": 0,
        "slot": "0",
        "type": "t_array(t_string_storage)dyn_storage"
      }
    ],
    "types": {
      "t_array(t_string_storage)dyn_storage": {
        "base": "t_string_storage",
        "encoding": "dynamic_array",
        "label": "string[]",
        "numberOfBytes": "32"
      },
      "t_string_storage": {
        "encoding": "bytes",
        "label": "string",
        "numberOfBytes": "32"
      }
    }
  }
}